{
  "_format": "hh-sol-artifact-1",
  "contractName": "WavePortal",
  "sourceName": "contracts/WavePortal.sol",
  "abi": [
    {
      "inputs": [],
      "stateMutability": "nonpayable",
      "type": "constructor"
    },
    {
      "inputs": [],
      "name": "getMyWaveCount",
      "outputs": [
        {
          "internalType": "uint256",
          "name": "",
          "type": "uint256"
        }
      ],
      "stateMutability": "view",
      "type": "function"
    },
    {
      "inputs": [],
      "name": "getTotalWaves",
      "outputs": [
        {
          "internalType": "uint256",
          "name": "",
          "type": "uint256"
        }
      ],
      "stateMutability": "view",
      "type": "function"
    },
    {
      "inputs": [],
      "name": "wave",
      "outputs": [],
      "stateMutability": "nonpayable",
      "type": "function"
    }
  ],
  "bytecode": "0x6080604052600060015534801561001557600080fd5b5061005e6040518060400160405280601c81526020017f4920616d206120736d61727420636f6e74726163742e20576f6168210000000081525061006360201b6102481760201c565b6101dd565b6100ff8160405160240161007791906101bb565b6040516020818303038152906040527f41304fac000000000000000000000000000000000000000000000000000000007bffffffffffffffffffffffffffffffffffffffffffffffffffffffff19166020820180517bffffffffffffffffffffffffffffffffffffffffffffffffffffffff838183161783525050505061010260201b60201c565b50565b60008151905060006a636f6e736f6c652e6c6f679050602083016000808483855afa5050505050565b600081519050919050565b600082825260208201905092915050565b60005b8381101561016557808201518184015260208101905061014a565b60008484015250505050565b6000601f19601f8301169050919050565b600061018d8261012b565b6101978185610136565b93506101a7818560208601610147565b6101b081610171565b840191505092915050565b600060208201905081810360008301526101d58184610182565b905092915050565b610753806101ec6000396000f3fe608060405234801561001057600080fd5b50600436106100415760003560e01c80636fe15b44146100465780639a2cdc0814610050578063d26b01ff1461006e575b600080fd5b61004e61008c565b005b610058610139565b60405161006591906104fa565b60405180910390f35b610076610184565b60405161008391906104fa565b60405180910390f35b6000803373ffffffffffffffffffffffffffffffffffffffff1673ffffffffffffffffffffffffffffffffffffffff16815260200190815260200160002060008154809291906100db90610544565b9190505550600160008154809291906100f390610544565b91905055506101376040518060400160405280601281526020017f2573206861732077617665642120f09f918b0000000000000000000000000000815250336102e1565b565b600061017c6040518060400160405280601781526020017f5765206861766520256420746f74616c2077617665732e00000000000000000081525060015461037d565b600154905090565b60006102046040518060400160405280601581526020017f2573206861732077617665642025642074696d65730000000000000000000000815250336000803373ffffffffffffffffffffffffffffffffffffffff1673ffffffffffffffffffffffffffffffffffffffff16815260200190815260200160002054610419565b6000803373ffffffffffffffffffffffffffffffffffffffff1673ffffffffffffffffffffffffffffffffffffffff16815260200190815260200160002054905090565b6102de8160405160240161025c919061061c565b6040516020818303038152906040527f41304fac000000000000000000000000000000000000000000000000000000007bffffffffffffffffffffffffffffffffffffffffffffffffffffffff19166020820180517bffffffffffffffffffffffffffffffffffffffffffffffffffffffff83818316178352505050506104b8565b50565b61037982826040516024016102f792919061067f565b6040516020818303038152906040527f319af333000000000000000000000000000000000000000000000000000000007bffffffffffffffffffffffffffffffffffffffffffffffffffffffff19166020820180517bffffffffffffffffffffffffffffffffffffffffffffffffffffffff83818316178352505050506104b8565b5050565b61041582826040516024016103939291906106af565b6040516020818303038152906040527fb60e72cc000000000000000000000000000000000000000000000000000000007bffffffffffffffffffffffffffffffffffffffffffffffffffffffff19166020820180517bffffffffffffffffffffffffffffffffffffffffffffffffffffffff83818316178352505050506104b8565b5050565b6104b3838383604051602401610431939291906106df565b6040516020818303038152906040527f0d26b925000000000000000000000000000000000000000000000000000000007bffffffffffffffffffffffffffffffffffffffffffffffffffffffff19166020820180517bffffffffffffffffffffffffffffffffffffffffffffffffffffffff83818316178352505050506104b8565b505050565b60008151905060006a636f6e736f6c652e6c6f679050602083016000808483855afa5050505050565b6000819050919050565b6104f4816104e1565b82525050565b600060208201905061050f60008301846104eb565b92915050565b7f4e487b7100000000000000000000000000000000000000000000000000000000600052601160045260246000fd5b600061054f826104e1565b91507fffffffffffffffffffffffffffffffffffffffffffffffffffffffffffffffff820361058157610580610515565b5b600182019050919050565b600081519050919050565b600082825260208201905092915050565b60005b838110156105c65780820151818401526020810190506105ab565b60008484015250505050565b6000601f19601f8301169050919050565b60006105ee8261058c565b6105f88185610597565b93506106088185602086016105a8565b610611816105d2565b840191505092915050565b6000602082019050818103600083015261063681846105e3565b905092915050565b600073ffffffffffffffffffffffffffffffffffffffff82169050919050565b60006106698261063e565b9050919050565b6106798161065e565b82525050565b6000604082019050818103600083015261069981856105e3565b90506106a86020830184610670565b9392505050565b600060408201905081810360008301526106c981856105e3565b90506106d860208301846104eb565b9392505050565b600060608201905081810360008301526106f981866105e3565b90506107086020830185610670565b61071560408301846104eb565b94935050505056fea2646970667358221220c197b6f93f567e829f06cd1a110dd35bf3d719037aab68aabf525873039caee064736f6c63430008110033",
  "linkReferences": {},
  "deployedLinkReferences": {}
}